:10163A001133226644CC8899111139286C44C68228
:10164A009311C0CFA4B0999282F880908883C6A1E2
:05165A00868EFF000078
:100ED00041002600410027004100290041009C00FC
:100EE000410001006040002A0000000000000000F6
:100EF00000000000000000000000000000000000F2
:100F000000000000000000000000000000000000E1
:100F100000000000000000000000000000000000D1
:100F2000000000000000000042007D070060220079
:100F300004000000000000000000000000000000AD
:100F400000000000000000000000000000000000A1
:100F500000000051008B00000101000001010100B0
:100F60000101000000000041007CFF41006A0041D7
:100F70000002FF51006B00000000000000000000B4
:0D0F800000000000000000C1004100000161
:0A16E400E4900003F0900028F022CB
:10141F007D01900028E0D36480F8ED6480985040FF
:10142F00EDFF3395E0FEEF25E0FFEE33FE747F2FE7
:10143F00F58274003EF583E0FC747D2FF582740015
:10144F003EF583ECF074802FF58274003EF583E057
:10145F00FC747E2FF58274003EF583ECF00D80B2A4
:06146F00900028E014F0DB
:011475002254
:10150000AC07900028E0FF3395E0FEEF25E0FFEE0A
:1015100033FE747F2FF58274003EF583ECF0748007
:101520002FF58274003EF583EDF0900028E004F082
:011530002298
:0B000300EC90163A93F5907F027E000F
:10000E00EFD394007480948040127E70EED39400EF
:0C001E007480948040031E80F31F80E477
:01002A0022B3
:070F8E007FF47E0112000E4A
:100F95007B15AF031BEF7003021041E4FAEAC3941B
:100FA500057480948050207D08EDD394007480945E
:100FB500804011ED90164393F5907F037E0012005B
:100FC5000E1D80E50A80D690009CE064017031908A
:100FD5000026E0702BFCECC39403748094805020B1
:100FE500E4FDEDC39408748094805011ED90163A99
:100FF50093F5907F037E0012000E0D80E50C80D6E0
:10100500900001E06401708A900026E07084FCEC99
:10101500C39403748094804003020F977D08EDD339
:101025009400748094804011ED90163A93F5907F6A
:0C103500037E0012000E1D80E50C80D32D
:01104100228C
:10159100E4FDEDC39466748094805015E4FCECC3C3
:1015A10094087480948050061200030C80F00D8022
:0A15B100E190006AE024025403F008
:0115BB00220D
:1015E700E4FDEDC39434748094805015E4FCECC39F
:1015F70094087480948050061200030C80F00D80CC
:09160700E190006AE0045403F0D4
:0116100022B7
:1015BC00E4FDEDC394347480948050157C08ECD316
:1015CC0094007480948040061200031C80F00D80FF
:0A15DC00E190006AE024035403F0DC
:0115E60022E2
:1010E2007B14AF031BEF7003021170E4FAEAC3949E
:1010F200057480948050197D08EDD3940074809417
:1011020080400AED9016431200071D80EC0A80DD34
:1011120090009CE064017027900026E07021FCECB6
:10112200C39403748094805016E4FDEDC394087454
:101132008094805007ED1200040D80EF0C80E09047
:101142000001E06401709B900026E07095FCECC306
:10115200940374809480508A7D08EDD39400748047
:0E11620094804007ED1200041D80EF0C80E029
:01117000225C
:101531007D0AEDD3940074809480400CB2B77F0A89
:101541007E0012000E1D80EA7D64EDD3940074804C
:101551009480400CD2B77F0A7E0012000E1D80EAF3
:011561002267
:10156200EF75F00A84FEEF75F00A84ADF0C2EAD29C
:10157200EBAF06EF90164C93F58012000AC2EBC255
:0E158200EBD2EAAF05EF93F58012000AC2EA41
:011590002238
:1016B700C2EAD2EBEF90164C93F58012000AC2EB08
:0116C7002200
:0D16810090007DE0FF1216B790007EE0FFA4
:10168E00C2EBD2EAEF90164C93F58012000AC2EA32
:01169E002229
:0E16C800EF1392E8EFA2E192A0A2E292A72215
:1012E6009000A5EEF0A3EFF0FBE4C39BFFE49EFEA7
:1012F60074019400FDE49400FCE4FB7A01F9F81211
:1013060014BCAF038FCD9000A5E0FEA3E0FBE4C3C1
:101316009BFFE49EFE74019400FDE49400FCE4FB54
:101326007A01F9F81214BC8FCB9000A5E0FEA3E079
:10133600FBE4C39BFFE49EFE74019400FDE494006D
:10134600FCE4FB7A01F9F81214BCAF038FCC8FCA08
:011356002274
:0E16D600D2AFD2AD7F887E131212E6D2CA22A6
:10147600900029E070081215E7120F8E8030900058
:1014860026E0700C120F957FF47E0112000E801E6E
:10149600900027E070081215BC120F8E80101215EE
:1014A60091120F8E7FF47E0112000E1215317FE825
:0614B6007E0312000E226D
:10169F00900027E0700C900029E07006900026E083
:0816AF006003C2B722D2B7228A
:1013570090007CE004F0A3E0FD90007CE0FF339573
:10136700E0FEEF25E0FFEE33FE74042FF5827400F4
:101377003EF583EDF090007EE0FD74052FF5827455
:10138700003EF583EDF0E4FFEFC39408748094808A
:10139700502DE4FEEEC3940874809480501EEF75C0
:1013A700F008A4242AF582E43400F583E5822EF5BB
:0F13B70082E43583F58374FFF00E80D80F80C970
:0113C6002204
:1008E600E4FF9000A5F0A3F090006AE0146076148F
:1008F60070030209CE147003020A2E240360030259
:100906000A8E900026E02F25E0FF900029E02F2593
:10091600E025E0FF900027E02FFF90007EE0FE90AC
:10092600007DE075F008A4242AF582E43400F583FE
:10093600E5822EF582E43583F583E0FDEF24F0FFB2
:10094600ED5FF090007DE075F008A4242AF582E4BE
:100956003400F583E5822EF582E43583F583E05491
:10096600DFF0020A8E900027E02F25E0FF90002698
:10097600E02F25E0FF900029E02F25E0FF90007E84
:10098600E0FE90007DE075F008A4242AF582E434A8
:1009960000F583E5822EF582E43583F583E0FDEFED
:1009A60024F0FFED5FF090007DE075F008A4242AA6
:1009B600F582E43400F583E5822EF582E43583F58D
:1009C60083E054EFF0020A8E900027E02F25E0FF27
:1009D600900026E02F25E0FF900029E02FFF9000F1
:1009E6007EE0FE90007DE075F008A4242AF582E4FE
:1009F6003400F583E5822EF582E43583F583E0FD48
:100A0600EF24F0FFED5FF090007DE075F008A42480
:100A16002AF582E43400F583E5822EF582E43583F7
:100A2600F583E0547FF08060900029E02F25E025D3
:100A3600E0FF900027E02F25E0FF900026E02FFF43
:100A460090007EE0FE90007DE075F008A4242AF573
:100A560082E43400F583E5822EF582E43583F5835E
:100A6600E0FDEF24F0FFED5FF090007DE075F0080B
:100A7600A4242AF582E43400F583E5822EF582E487
:100A86003583F583E054BFF090007DE06407700A7B
:100A9600A3E0700690006274F7F0900026E0700DF7
:100AA600FF120B1FEF60069000A5E004F0900029EE
:100AB600E0700E7F01120B1FEF60069000A5E004A8
:100AC600F0900027E0700E7F03120B1FEF60069078
:100AD60000A5E004F09000A5E0C394027480948021
:100AE600403690007CE004F0A3E0FD90007CE0FF3F
:100AF6003395E0FEEF25E0FFEE33FE74042FF5821A
:100B060074003EF583EDF090007EE0FD74052FF550
:080B16008274003EF583EDF04E
:010B1E0022B4
:100B1F0090007DE0FEA3E0FD90006AE014700302F8
:100B2F000BB6147003020C28147003020C9A2403E2
:100B3F006003020D0BEF14602A24FE60482403703B
:100B4F0066EE75F008A42422F582E43400F583E5FF
:100B5F00822DF582E43583F583E0F470037F012263
:100B6F007F0022EE75F008A4242BF582E43400F503
:100B7F0083E5822DF582E43583F583E0F470037FFE
:100B8F0001227F0022EE75F008A42429F582E434B7
:100B9F0000F583E5822DF582E43583F583E0F4706B
:100BAF00037F01227F0022EF14602A24FE60482475
:100BBF00037066EE75F008A4242BF582E43400F57B
:100BCF0083E5822DF582E43583F583E0F470037FAE
:100BDF0001227F0022EE75F008A42432F582E4345E
:100BEF0000F583E5822DF582E43583F583E0F4701B
:100BFF00037F01227F0022EE75F008A42422F582E4
:100C0F00E43400F583E5822DF582E43583F583E046
:100C1F00F470037F01227F0022EF14602A24FE600C
:100C2F004824037066EE75F008A42432F582E4348C
:100C3F0000F583E5822DF582E43583F583E0F470CA
:100C4F00037F01227F0022EE75F008A42429F5828C
:100C5F00E43400F583E5822DF582E43583F583E0F6
:100C6F00F470037F01227F0022EE75F008A4242B7D
:100C7F00F582E43400F583E5822DF582E43583F5C2
:100C8F0083E0F470037F01227F0022EF14602A2497
:100C9F00FE604824037065EE75F008A42429F582E0
:100CAF00E43400F583E5822DF582E43583F583E0A6
:100CBF00F470037F01227F0022EE75F008A4242236
:100CCF00F582E43400F583E5822DF582E43583F572
:100CDF0083E0F470037F01227F0022EE75F008A4F9
:100CEF002432F582E43400F583E5822DF582E43574
:0C0CFF0083F583E0F470037F01227F0086
:010D0B0022C5
:1016110090006AE014600F146011146015240370C7
:101621001790007D800F90007E800390007DE00484
:09163100F02290007EE014F0228A
:10002E00E49000A5F0A3F0A3F090007EE0FF900016
:10003E007DE075F008A4242AF582E43400F583E50A
:10004E00822FF582E43583F58390007EE0FF9000E9
:10005E007DE075F008A4242AF582E43400F583E5EA
:10006E00822FF582E43583F583E0F97F0478040866
:10007E008002C313D8FCF920E05690006AE01460A9
:10008E000F14601114601A240370201215BC80081E
:10009E0012159180031215E77F647E0012000E8008
:1000AE0000120F957F647E0012000E121611900042
:1000BE007EE0FF90007DE075F008A4242AF582E42E
:1000CE003400F583E5822FF582E43583F583E0F97C
:1000DE0012168190007CE0FF3395E0FEEF25E0FFE5
:1000EE00EE33FE74042FF58274003EF583E0FD902E
:1000FE00007DE0B5051674052FF58274003EF5837C
:10010E00E0FF90007EE06F700302037B90007EE0C4
:10011E00FF90007DE075F008A4242AF582E43400F7
:10012E00F583E5822FF582E43583F583E0F97F05CB
:10013E007805088002C313D8FCF920E05690006AB7
:10014E00E014600F14601114601024037020121557
:10015E0091800A1215E78005800A1215BC7F647E15
:10016E000012000E120F957F647E0012000E121602
:10017E001190007EE0FF90007DE075F008A4242A27
:10018E00F582E43400F583E5822FF582E43583F5BC
:10019E0083E0F912168190007CE0FF3395E0FEEFCC
:1001AE0025E0FFEE33FE74042FF58274003EF583D6
:1001BE00E0FD90007DE0B5051674052FF582740004
:1001CE003EF583E0FF90007EE06F700302037B90AC
:1001DE00007EE0FF90007DE075F008A4242AF582F1
:1001EE00E43400F583E5822FF582E43583F583E070
:1001FE00F97F067806088002C313D8FCF920E05D6B
:10020E0090006AE014600F14600E146017240370DF
:10021E00271215E7800580161215BC7F647E00122A
:10022E00000E800A1215917F647E0012000E120FCE
:10023E00957F647E0012000E12161190007EE0FF74
:10024E0090007DE075F008A4242AF582E43400F5D0
:10025E0083E5822FF582E43583F583E0F91216816A
:10026E0090007CE0FF3395E0FEEF25E0FFEE33FEDD
:10027E0074042FF58274003EF583E0FD90007DE05E
:10028E00B5051674052FF58274003EF583E0FF90D8
:10029E00007EE06F700302037B90007EE0FF900013
:1002AE007DE075F008A4242AF582E43400F583E598
:1002BE00822FF582E43583F583E0F97F077807080E
:1002CE008002C313D8FCF920E06490006AE0146049
:1002DE000C14601514601E2403702E80221215BC9F
:1002EE007F647E0012000E80161215917F647E00D0
:1002FE0012000E800A1215E77F647E0012000E12A5
:10030E000F957F647E0012000E12161190007EE093
:10031E00FF90007DE075F008A4242AF582E43400F5
:10032E00F583E5822FF582E43583F583E0F9121625
:10033E008190007CE0FF3395E0FEEF25E0FFEE3389
:10034E00FE74042FF58274003EF583E0FD90007D6F
:10035E00E06D600302005774052FF58274003EF5C0
:10036E0083E0FF90007EE06F600302005790007CF8
:03037E00E014F098
:010381002259
:1011FD0012168190007EE0FF90007DE075F008A44E
:10120D00242AF582E43400F583E5822FF582E43556
:10121D0083F583E0F470031208E6900029E0700D69
:10122D007F01120B1FEF60051215E780209000263D
:10123D00E07009FF120B1FEF60028018900027E08D
:10124D00701F7F03120B1FEF60171215BC7F647E9A
:10125D000012000E120F957FF47E0112000E021681
:05126D001112002E2209
:1013C700E4FFFEEEC3940874809480504AE4FDED78
:1013D700C3940874809480503BEE75F008A4242AC7
:1013E700F582E43400F583E5822DF582E43583F553
:1013F70083E0540F2410FFEE75F008A4242AF58229
:10140700E43400F583E5822DF582E43583F583EF37
:07141700F00D80BB0E80AC5C
:01141E0022AB
:1003820090009D7401F0A3F0A3F0E4A3F0A3F0A306
:10039200F078A37C007D017BFF7A16795DFE7F02F7
:1003A200120DDCE4FD7F07121500900028E0FF909B
:1003B2000003E0FEC3EF6480F8EE6480984003021D
:1003C200067390007FE09000A3F0900080E0900020
:1003D200A4F012141F9000A3E0FF7029A3E0FE64B2
:1003E20007702290009EE0FD04F0EF75F008A4244F
:1003F2002AF582E43400F583E5822EF582E4358322
:10040200F583EDF0229000A4E0FF9000A3E0FE75DA
:10041200F008A4242AF582E43400F583E5822FF55E
:1004220082E43583F583E0FD9000A1F0E4A3F0EDD2
:1004320054019000A1F07030EE75F008A42429F563
:1004420082E43400F583E5822FF582E43583F58377
:10045200E0C4540F60129000A3E0FFA3E014FD1269
:1004620015009000A2E004F09000A4E0FF9000A329
:10047200E0FE75F008A4242AF582E43400F583E551
:10048200822FF582E43583F583E09000A1F0E0A2AB
:10049200E713F05401F07030EE75F008A42432F541
:1004A20082E43400F583E5822FF582E43583F58317
:1004B200E0C4540F60129000A3E004FFA3E0FD1219
:1004C20015009000A2E004F09000A4E0FF9000A3C9
:1004D200E0FE75F008A4242AF582E43400F583E5F1
:1004E200822FF582E43583F583E09000A1F0E0A24B
:1004F200E713A2E713F05401F07030EE75F008A490
:10050200242BF582E43400F583E5822FF582E4356D
:1005120083F583E0C4540F60129000A3E0FFA3E0D0
:1005220004FD1215009000A2E004F09000A4E0FF88
:100532009000A3E0FE75F008A4242AF582E43400BA
:10054200F583E5822FF582E43583F583E09000A1FF
:10055200F0E0FD7803A2E713D8FB9000A1F054016C
:10056200F07030EE75F008A42422F582E43400F530
:1005720083E5822FF582E43583F583E0C4540F606E
:10058200129000A3E014FFA3E0FD1215009000A258
:10059200E004F09000A2E0FFFD3395E0FCC3ED948F
:1005A20002EC64809480401E9000A0E0FB3395E052
:1005B200FAEB4A7011EF14FF90009DE02FF09000CB
:1005C200A07401F08017C3ED9402EC648094804023
:1005D2000C9000A2E014FF90009DE02FF09000A28A
:1005E200E0FF3395E0FED3EF9400EE648094804008
:1005F2002C90009EE0FF9000A4E0FE9000A3E07526
:10060200F008A4242AF582E43400F583E5822EF56D
:1006120082E43583F583EFF090009F803090009E56
:10062200E0FF9000A4E0FE9000A3E075F008A4248F
:100632002AF582E43400F583E5822EF582E43583DF
:10064200F583EFF090009FE014F090009DE014F02D
:1006520090009FE0FF3395E0FEEF4E60030203AC93
:1006620090009DE090009FF090009EE004F0020355
:01067200ACDB
:010673002264
:10067400E49000A8F07D079000A8E0FF3395E0FE29
:10068400EF64074E700BEDFB3395E04B70030208EB
:10069400E5EF7803C333CE33CED8F9242AF5827438
:1006A400003EF583EDFF3395E0FEE5822FF582E50C
:1006B400833EF583E014FC9000A8E0FF3395E0FE50
:1006C400EF7803C333CE33CED8F92422F5827400F5
:1006D4003EF583EDFF3395E0FEE5822FF582E58359
:1006E4003EF583E0B504389000A8E0FF3395E0FEC2
:1006F400EF24FFEE34FFC364809480402290000214
:10070400E004F0E0FF3395E0FE746B2FF582740093
:100714003EF5837402F09000A8E014F002067B908A
:1007240000A8E0FF3395E0FEEF7803C333CE33CE69
:10073400D8F9242AF58274003EF583EDFF3395E061
:10074400FEE5822FF582E5833EF583E014FC9000FC
:10075400A8E0FF3395E0FEEF7803C333CE33CED861
:10076400F9242BF58274003EF583EDFF3395E0FE0A
:10077400E5822FF582E5833EF583E0B50434ED335D
:1007840095E0FEEF2401FFE43EFED3EF9407EE6410
:10079400809480501D900002E004F0E0FF3395E067
:1007A400FE746B2FF58274003EF5837403F00D0222
:1007B400067B9000A8E0FF3395E0FEEF7803C33397
:1007C400CE33CED8F9242AF58274003EF583EDFFAA
:1007D4003395E0FEE5822FF582E5833EF583E01450
:1007E400FC9000A8E0FF3395E0FEEF7803C333CE1E
:1007F40033CED8F92432F58274003EF583EDFF330D
:1008040095E0FEE5822FF582E5833EF583E0B504AD
:100814003C9000A8E0FF3395E0FEEF2401FFE43EA6
:10082400FED3EF9407EE648094805021900002E0A0
:1008340004F0E0FF3395E0FE746B2FF58274003E04
:10084400F583E4F09000A8E004F002067B9000A891
:10085400E0FF3395E0FEEF7803C333CE33CED8F90F
:10086400242AF58274003EF583EDFF3395E0FEE51E
:10087400822FF582E5833EF583E014FC9000A8E026
:10088400FF3395E0FEEF7803C333CE33CED8F9249B
:1008940029F58274003EF583EDFF3395E0FEE58291
:1008A4002FF582E5833EF583E06C600302067BED61
:1008B4003395E0FEEF24FFEE34FFC3648094805050
:1008C4000302067B900002E004F0E0FF3395E0FEB3
:1008D400746B2FF58274003EF5837401F01D0206DB
:0108E4007B98
:0108E50022F0
:1012720090006A7402F0900002740DF012159190C1
:101282000002E0FFFD3395E0FCD3ED94FFEC6480B7
:10129200947F404F90006AE014601F04703DEF336A
:1012A20095E0FE748B2FF58274003EF583E06008B2
:1012B2001470281215E78020801E900002E0FF3390
:1012C20095E0FE748B2FF58274003EF583E0600595
:1012D20014700880031215BC1210E2900002E01490
:0412E200F0809C22DA
:10165F001216D612135790007CE03395E0C36480C6
:10166F009480400C7FF47E0112000E1211FD80E673
:02167F0080FEEB
:03002B000210427E
:0F104200C0E0C083C082C0D075D000C006C00718
:10105100C2CF20000B900000E014FF1216C8805987
:10106100900000E0FF7E006401700990002630A12D
:1010710045F08045EF64024E700B90009C30A20356
:10108100F080368031EF64034E700B90002730A35F
:1010910003F080258020EF64044E700B900029300E
:1010A100A403F08014800FEF64054E700C900001D2
:1010B10030A503F080037401F0300006900000E0D9
:1010C10004F0900000E0D394057480948040037490
:0410D10001F0B20078
:0D10D500D007D006D0D0D082D083D0E0323A
:0300000002117179
:0C117100787FE4F6D8FD7581200211B8EB
:100D0C00E709F608DFFA8046E709F208DFFA803EC9
:100D1C0088828C83E709F0A3DFFA8032E309F608B6
:100D2C00DFFA8078E309F208DFFA807088828C831E
:100D3C00E309F0A3DFFA806489828A83E0A3F608D2
:100D4C00DFFA805889828A83E0A3F208DFFA804CAC
:100D5C0080D280FA80C680D4806980F28033801083
:100D6C0080A680EA809A80A880DA80E280CA8033EC
:100D7C0089828A83ECFAE493A3C8C582C8CCC58364
:100D8C00CCF0A3C8C582C8CCC583CCDFE9DEE78034
:100D9C000D89828A83E493A3F608DFF9ECFAA9F0B3
:100DAC00EDFB2289828A83ECFAE0A3C8C582C8CC09
:100DBC00C583CCF0A3C8C582C8CCC583CCDFEADE22
:100DCC00E880DB89828A83E493A3F208DFF980CC84
:100DDC0088F0EF60010E4E60C388F0ED2402B4047D
:100DEC000050B9F582EB2402B4040050AF23234524
:060DFC008223900D5C73E0
:1014BC00C2D5E830E70FB2D5E4C39BFBE49AFAE45B
:1014CC0099F9E498F8EC30E717B2D51214F2120E31
:1014DC003EE4C39BFBE49AFAE499F9E498F88003A0
:1014EC00120E3E30D50DE4C39FFFE49EFEE49DFD3D
:0414FC00E49CFC224E
:10117D0002165FE493A3F8E493A34003F68001F213
:10118D0008DFF48029E493A3F85407240CC8C33373
:10119D00C4540F4420C8834004F456800146F6DF42
:1011AD00E4800B0102040810204080900ED0E47EF4
:1011BD00019360BCA3FF543F30E509541FFEE49337
:1011CD00A360010ECF54C025E060A840B8E493A3FE
:1011DD00FAE493A3F8E493A3C8C582C8CAC583CA29
:1011ED00F0A3C8C582C8CAC583CADFE9DEE780BEE1
:010F8D000063
:100E020075F008758200EF2FFFEE33FECD33CDCCA7
:100E120033CCC58233C5829BED9AEC99E58298402A
:100E22000CF582EE9BFEED9AFDEC99FC0FD5F0D607
:100E3200E4CEFBE4CDFAE4CCF9A88222B800C1B931
:100E42000059BA002DEC8BF084CFCECDFCE5F0CB6F
:100E5200F97818EF2FFFEE33FEED33FDEC33FCEBA8
:100E620033FB10D703994004EB99FB0FD8E5E4F963
:100E7200FA227818EF2FFFEE33FEED33FDEC33FC50
:100E8200C933C910D7059BE99A4007EC9BFCE99A44
:100E9200F90FD8E0E4C9FAE4CCFB2275F010EF2F89
:100EA200FFEE33FEED33FDCC33CCC833C810D70789
:100EB2009BEC9AE899400AED9BFDEC9AFCE899F8C4
:0E0EC2000FD5F0DAE4CDFBE4CCFAE4C8F92257
:00000001FF
